{
  "contractName": "LotteryToken",
  "abi": [
    {
      "inputs": [],
      "stateMutability": "nonpayable",
      "type": "constructor"
    },
    {
      "anonymous": false,
      "inputs": [
        {
          "indexed": true,
          "internalType": "address",
          "name": "tokenOwner",
          "type": "address"
        },
        {
          "indexed": true,
          "internalType": "address",
          "name": "spender",
          "type": "address"
        },
        {
          "indexed": false,
          "internalType": "uint256",
          "name": "tokens",
          "type": "uint256"
        }
      ],
      "name": "Approval",
      "type": "event"
    },
    {
      "anonymous": false,
      "inputs": [
        {
          "indexed": true,
          "internalType": "address",
          "name": "_from",
          "type": "address"
        },
        {
          "indexed": true,
          "internalType": "address",
          "name": "_to",
          "type": "address"
        }
      ],
      "name": "OwnershipTransferred",
      "type": "event"
    },
    {
      "anonymous": false,
      "inputs": [
        {
          "indexed": true,
          "internalType": "address",
          "name": "_from",
          "type": "address"
        },
        {
          "indexed": true,
          "internalType": "address",
          "name": "_to",
          "type": "address"
        },
        {
          "indexed": false,
          "internalType": "uint256",
          "name": "tokens",
          "type": "uint256"
        }
      ],
      "name": "Transfer",
      "type": "event"
    },
    {
      "inputs": [],
      "name": "acceptOwnership",
      "outputs": [],
      "stateMutability": "nonpayable",
      "type": "function"
    },
    {
      "inputs": [
        {
          "internalType": "address",
          "name": "",
          "type": "address"
        }
      ],
      "name": "airDropTag",
      "outputs": [
        {
          "internalType": "bool",
          "name": "",
          "type": "bool"
        }
      ],
      "stateMutability": "view",
      "type": "function"
    },
    {
      "inputs": [],
      "name": "decimals",
      "outputs": [
        {
          "internalType": "uint8",
          "name": "",
          "type": "uint8"
        }
      ],
      "stateMutability": "view",
      "type": "function"
    },
    {
      "inputs": [],
      "name": "initLotteryValve",
      "outputs": [
        {
          "internalType": "uint256",
          "name": "",
          "type": "uint256"
        }
      ],
      "stateMutability": "view",
      "type": "function"
    },
    {
      "inputs": [
        {
          "internalType": "address",
          "name": "_addre",
          "type": "address"
        }
      ],
      "name": "isContract",
      "outputs": [
        {
          "internalType": "bool",
          "name": "",
          "type": "bool"
        }
      ],
      "stateMutability": "pure",
      "type": "function"
    },
    {
      "inputs": [],
      "name": "lotteryFee",
      "outputs": [
        {
          "internalType": "uint256",
          "name": "",
          "type": "uint256"
        }
      ],
      "stateMutability": "view",
      "type": "function"
    },
    {
      "inputs": [],
      "name": "lotteryValve",
      "outputs": [
        {
          "internalType": "uint256",
          "name": "",
          "type": "uint256"
        }
      ],
      "stateMutability": "view",
      "type": "function"
    },
    {
      "inputs": [],
      "name": "name",
      "outputs": [
        {
          "internalType": "string",
          "name": "",
          "type": "string"
        }
      ],
      "stateMutability": "view",
      "type": "function"
    },
    {
      "inputs": [],
      "name": "newOwner",
      "outputs": [
        {
          "internalType": "address",
          "name": "",
          "type": "address"
        }
      ],
      "stateMutability": "view",
      "type": "function"
    },
    {
      "inputs": [],
      "name": "owner",
      "outputs": [
        {
          "internalType": "address",
          "name": "",
          "type": "address"
        }
      ],
      "stateMutability": "view",
      "type": "function"
    },
    {
      "inputs": [],
      "name": "symbol",
      "outputs": [
        {
          "internalType": "string",
          "name": "",
          "type": "string"
        }
      ],
      "stateMutability": "view",
      "type": "function"
    },
    {
      "inputs": [
        {
          "internalType": "address",
          "name": "_newOwner",
          "type": "address"
        }
      ],
      "name": "transferOwnership",
      "outputs": [],
      "stateMutability": "nonpayable",
      "type": "function"
    },
    {
      "inputs": [],
      "name": "totalSupply",
      "outputs": [
        {
          "internalType": "uint256",
          "name": "",
          "type": "uint256"
        }
      ],
      "stateMutability": "view",
      "type": "function"
    },
    {
      "inputs": [
        {
          "internalType": "address",
          "name": "tokenOwner",
          "type": "address"
        }
      ],
      "name": "balanceOf",
      "outputs": [
        {
          "internalType": "uint256",
          "name": "",
          "type": "uint256"
        }
      ],
      "stateMutability": "view",
      "type": "function"
    },
    {
      "inputs": [
        {
          "internalType": "address",
          "name": "_to",
          "type": "address"
        },
        {
          "internalType": "uint256",
          "name": "_tokens",
          "type": "uint256"
        }
      ],
      "name": "transfer",
      "outputs": [
        {
          "internalType": "bool",
          "name": "success",
          "type": "bool"
        }
      ],
      "stateMutability": "nonpayable",
      "type": "function"
    },
    {
      "inputs": [
        {
          "internalType": "uint256",
          "name": "_initLotteryValve",
          "type": "uint256"
        }
      ],
      "name": "setInitLotteryValve",
      "outputs": [],
      "stateMutability": "nonpayable",
      "type": "function"
    },
    {
      "inputs": [
        {
          "internalType": "address",
          "name": "spender",
          "type": "address"
        },
        {
          "internalType": "uint256",
          "name": "_tokens",
          "type": "uint256"
        }
      ],
      "name": "approve",
      "outputs": [
        {
          "internalType": "bool",
          "name": "success",
          "type": "bool"
        }
      ],
      "stateMutability": "nonpayable",
      "type": "function"
    },
    {
      "inputs": [
        {
          "internalType": "address",
          "name": "_from",
          "type": "address"
        },
        {
          "internalType": "address",
          "name": "_to",
          "type": "address"
        },
        {
          "internalType": "uint256",
          "name": "_tokens",
          "type": "uint256"
        }
      ],
      "name": "transferFrom",
      "outputs": [
        {
          "internalType": "bool",
          "name": "success",
          "type": "bool"
        }
      ],
      "stateMutability": "nonpayable",
      "type": "function"
    },
    {
      "inputs": [
        {
          "internalType": "address",
          "name": "tokenOwner",
          "type": "address"
        },
        {
          "internalType": "address",
          "name": "spender",
          "type": "address"
        }
      ],
      "name": "allowance",
      "outputs": [
        {
          "internalType": "uint256",
          "name": "remaining",
          "type": "uint256"
        }
      ],
      "stateMutability": "view",
      "type": "function"
    }
  ],
  "bytecode": "0x6080604052600a600655600a600755600a6008553480156200002057600080fd5b50336000806101000a81548173ffffffffffffffffffffffffffffffffffffffff021916908373ffffffffffffffffffffffffffffffffffffffff1602179055506040518060400160405280600781526020017f4c4f54f09f8e890000000000000000000000000000000000000000000000000081525060029080519060200190620000ae92919062000215565b506040518060600160405280602a815260200162001737602a913960039080519060200190620000e092919062000215565b506012600460006101000a81548160ff021916908360ff16021790555069021e19e0c9bab24000006005819055506000682086ac351052600000905080600960003373ffffffffffffffffffffffffffffffffffffffff1673ffffffffffffffffffffffffffffffffffffffff168152602001908152602001600020819055508060055403600960008073ffffffffffffffffffffffffffffffffffffffff1673ffffffffffffffffffffffffffffffffffffffff168152602001908152602001600020819055503373ffffffffffffffffffffffffffffffffffffffff16600073ffffffffffffffffffffffffffffffffffffffff167fddf252ad1be2c89b69c2b068fc378daa952ba7f163c4a11628f55a4df523b3ef836040518082815260200191505060405180910390a350620002bb565b828054600181600116156101000203166002900490600052602060002090601f016020900481019282601f106200025857805160ff191683800117855562000289565b8280016001018555821562000289579182015b82811115620002885782518255916020019190600101906200026b565b5b5090506200029891906200029c565b5090565b5b80821115620002b75760008160009055506001016200029d565b5090565b61146c80620002cb6000396000f3fe608060405234801561001057600080fd5b50600436106101215760003560e01c806370a08231116100ad578063a9059cbb11610071578063a9059cbb14610507578063bd1e152f1461056b578063d4ee1d9014610589578063dd62ed3e146105bd578063f2fde38b1461063557610121565b806370a08231146103d057806378aa08ed1461042857806379ba5097146104465780638da5cb5b1461045057806395d89b411461048457610121565b806318160ddd116100f457806318160ddd1461029557806323b872dd146102b3578063313ce56714610337578063567fec58146103585780636af98038146103b257610121565b806306fdde0314610126578063095ea7b3146101a957806311c8d7281461020d578063162790551461023b575b600080fd5b61012e610679565b6040518080602001828103825283818151815260200191508051906020019080838360005b8381101561016e578082015181840152602081019050610153565b50505050905090810190601f16801561019b5780820380516001836020036101000a031916815260200191505b509250505060405180910390f35b6101f5600480360360408110156101bf57600080fd5b81019080803573ffffffffffffffffffffffffffffffffffffffff16906020019092919080359060200190929190505050610717565b60405180821515815260200191505060405180910390f35b6102396004803603602081101561022357600080fd5b8101908080359060200190929190505050610809565b005b61027d6004803603602081101561025157600080fd5b81019080803573ffffffffffffffffffffffffffffffffffffffff16906020019092919050505061087b565b60405180821515815260200191505060405180910390f35b61029d610901565b6040518082815260200191505060405180910390f35b61031f600480360360608110156102c957600080fd5b81019080803573ffffffffffffffffffffffffffffffffffffffff169060200190929190803573ffffffffffffffffffffffffffffffffffffffff1690602001909291908035906020019092919050505061094c565b60405180821515815260200191505060405180910390f35b61033f610a6a565b604051808260ff16815260200191505060405180910390f35b61039a6004803603602081101561036e57600080fd5b81019080803573ffffffffffffffffffffffffffffffffffffffff169060200190929190505050610a7d565b60405180821515815260200191505060405180910390f35b6103ba610a9d565b6040518082815260200191505060405180910390f35b610412600480360360208110156103e657600080fd5b81019080803573ffffffffffffffffffffffffffffffffffffffff169060200190929190505050610aa3565b6040518082815260200191505060405180910390f35b610430610aec565b6040518082815260200191505060405180910390f35b61044e610af2565b005b610458610c8e565b604051808273ffffffffffffffffffffffffffffffffffffffff16815260200191505060405180910390f35b61048c610cb2565b6040518080602001828103825283818151815260200191508051906020019080838360005b838110156104cc5780820151818401526020810190506104b1565b50505050905090810190601f1680156104f95780820380516001836020036101000a031916815260200191505b509250505060405180910390f35b6105536004803603604081101561051d57600080fd5b81019080803573ffffffffffffffffffffffffffffffffffffffff16906020019092919080359060200190929190505050610d50565b60405180821515815260200191505060405180910390f35b610573610fdd565b6040518082815260200191505060405180910390f35b610591610fe3565b604051808273ffffffffffffffffffffffffffffffffffffffff16815260200191505060405180910390f35b61061f600480360360408110156105d357600080fd5b81019080803573ffffffffffffffffffffffffffffffffffffffff169060200190929190803573ffffffffffffffffffffffffffffffffffffffff169060200190929190505050611009565b6040518082815260200191505060405180910390f35b6106776004803603602081101561064b57600080fd5b81019080803573ffffffffffffffffffffffffffffffffffffffff169060200190929190505050611090565b005b60038054600181600116156101000203166002900480601f01602080910402602001604051908101604052809291908181526020018280546001816001161561010002031660029004801561070f5780601f106106e45761010080835404028352916020019161070f565b820191906000526020600020905b8154815290600101906020018083116106f257829003601f168201915b505050505081565b600081600a60003373ffffffffffffffffffffffffffffffffffffffff1673ffffffffffffffffffffffffffffffffffffffff16815260200190815260200160002060008573ffffffffffffffffffffffffffffffffffffffff1673ffffffffffffffffffffffffffffffffffffffff168152602001908152602001600020819055508273ffffffffffffffffffffffffffffffffffffffff163373ffffffffffffffffffffffffffffffffffffffff167f8c5be1e5ebec7d5bd14f71427d1e84f3dd0314c0f7b2291e5b200ac8c7c3b925846040518082815260200191505060405180910390a36001905092915050565b60008054906101000a900473ffffffffffffffffffffffffffffffffffffffff1673ffffffffffffffffffffffffffffffffffffffff163373ffffffffffffffffffffffffffffffffffffffff161461086157600080fd5b6127106008541061087157600080fd5b8060088190555050565b600060027fffffffffffffffffffffffffffffffffffffffffffffffffffffffffffffffff73ffffffffffffffffffffffffffffffffffffffff16816108bd57fe5b0473ffffffffffffffffffffffffffffffffffffffff168273ffffffffffffffffffffffffffffffffffffffff16116108f75760006108fa565b60015b9050919050565b6000600960008073ffffffffffffffffffffffffffffffffffffffff1673ffffffffffffffffffffffffffffffffffffffff1681526020019081526020016000205460055403905090565b60006109d4600a60008673ffffffffffffffffffffffffffffffffffffffff1673ffffffffffffffffffffffffffffffffffffffff16815260200190815260200160002060003373ffffffffffffffffffffffffffffffffffffffff1673ffffffffffffffffffffffffffffffffffffffff168152602001908152602001600020548361112c565b600a60008673ffffffffffffffffffffffffffffffffffffffff1673ffffffffffffffffffffffffffffffffffffffff16815260200190815260200160002060003373ffffffffffffffffffffffffffffffffffffffff1673ffffffffffffffffffffffffffffffffffffffff16815260200190815260200160002081905550610a5f848484611146565b600190509392505050565b600460009054906101000a900460ff1681565b600b6020528060005260406000206000915054906101000a900460ff1681565b60085481565b6000600960008373ffffffffffffffffffffffffffffffffffffffff1673ffffffffffffffffffffffffffffffffffffffff168152602001908152602001600020549050919050565b60065481565b600160009054906101000a900473ffffffffffffffffffffffffffffffffffffffff1673ffffffffffffffffffffffffffffffffffffffff163373ffffffffffffffffffffffffffffffffffffffff1614610b4c57600080fd5b600160009054906101000a900473ffffffffffffffffffffffffffffffffffffffff1673ffffffffffffffffffffffffffffffffffffffff1660008054906101000a900473ffffffffffffffffffffffffffffffffffffffff1673ffffffffffffffffffffffffffffffffffffffff167f8be0079c531659141344cd1fd0a4f28419497f9722a3daafe3b4186f6b6457e060405160405180910390a3600160009054906101000a900473ffffffffffffffffffffffffffffffffffffffff166000806101000a81548173ffffffffffffffffffffffffffffffffffffffff021916908373ffffffffffffffffffffffffffffffffffffffff1602179055506000600160006101000a81548173ffffffffffffffffffffffffffffffffffffffff021916908373ffffffffffffffffffffffffffffffffffffffff160217905550565b60008054906101000a900473ffffffffffffffffffffffffffffffffffffffff1681565b60028054600181600116156101000203166002900480601f016020809104026020016040519081016040528092919081815260200182805460018160011615610100020316600290048015610d485780601f10610d1d57610100808354040283529160200191610d48565b820191906000526020600020905b815481529060010190602001808311610d2b57829003601f168201915b505050505081565b6000610d5b3361087b565b80610d6b5750610d6a8361087b565b5b80610d7d5750670de0b6b3a764000082105b15610d9657610d8d338484611146565b60019050610fd7565b600b60008473ffffffffffffffffffffffffffffffffffffffff1673ffffffffffffffffffffffffffffffffffffffff16815260200190815260200160002060009054906101000a900460ff16610ea4576001600b60008573ffffffffffffffffffffffffffffffffffffffff1673ffffffffffffffffffffffffffffffffffffffff16815260200190815260200160002060006101000a81548160ff021916908315150217905550670de0b6b3a7640000600960008073ffffffffffffffffffffffffffffffffffffffff1673ffffffffffffffffffffffffffffffffffffffff168152602001908152602001600020541115610ea357610ea2600084670de0b6b3a7640000611146565b5b5b610ec33384600a610eb68660096112c8565b81610ebd57fe5b04611146565b610ed83330600a8581610ed257fe5b04611146565b6000670de0b6b3a76400008381610eeb57fe5b04905060005b81811015610fd057610f05600182016112f5565b15610fc357610f543033600960003073ffffffffffffffffffffffffffffffffffffffff1673ffffffffffffffffffffffffffffffffffffffff16815260200190815260200160002054611146565b678ac7230489e80000600960008073ffffffffffffffffffffffffffffffffffffffff1673ffffffffffffffffffffffffffffffffffffffff168152602001908152602001600020541115610fb857610fb7600033678ac7230489e80000611146565b5b600192505050610fd7565b8080600101915050610ef1565b5050600190505b92915050565b60075481565b600160009054906101000a900473ffffffffffffffffffffffffffffffffffffffff1681565b6000600a60008473ffffffffffffffffffffffffffffffffffffffff1673ffffffffffffffffffffffffffffffffffffffff16815260200190815260200160002060008373ffffffffffffffffffffffffffffffffffffffff1673ffffffffffffffffffffffffffffffffffffffff16815260200190815260200160002054905092915050565b60008054906101000a900473ffffffffffffffffffffffffffffffffffffffff1673ffffffffffffffffffffffffffffffffffffffff163373ffffffffffffffffffffffffffffffffffffffff16146110e857600080fd5b80600160006101000a81548173ffffffffffffffffffffffffffffffffffffffff021916908373ffffffffffffffffffffffffffffffffffffffff16021790555050565b60008282111561113b57600080fd5b818303905092915050565b61118f600960008573ffffffffffffffffffffffffffffffffffffffff1673ffffffffffffffffffffffffffffffffffffffff168152602001908152602001600020548261112c565b600960008573ffffffffffffffffffffffffffffffffffffffff1673ffffffffffffffffffffffffffffffffffffffff1681526020019081526020016000208190555061121b600960008473ffffffffffffffffffffffffffffffffffffffff1673ffffffffffffffffffffffffffffffffffffffff168152602001908152602001600020548261141c565b600960008473ffffffffffffffffffffffffffffffffffffffff1673ffffffffffffffffffffffffffffffffffffffff168152602001908152602001600020819055508173ffffffffffffffffffffffffffffffffffffffff168373ffffffffffffffffffffffffffffffffffffffff167fddf252ad1be2c89b69c2b068fc378daa952ba7f163c4a11628f55a4df523b3ef836040518082815260200191505060405180910390a3505050565b6000818302905060008314806112e65750818382816112e357fe5b04145b6112ef57600080fd5b92915050565b600080434233604051602001808273ffffffffffffffffffffffffffffffffffffffff1660601b81526014019150506040516020818303038152906040528051906020012060001c8161134457fe5b04454241604051602001808273ffffffffffffffffffffffffffffffffffffffff1660601b81526014019150506040516020818303038152906040528051906020012060001c8161139157fe5b04444288010101010101604051602001808281526020019150506040516020818303038152906040528051906020012060001c90506007546127108083816113d557fe5b0402820310156113f2576008546007819055506001915050611417565b6001600754111561141157600760008154809291906001900391905055505b60009150505b919050565b600081830190508281101561143057600080fd5b9291505056fea26469706673582212203e40a5410778550ff78a49366f3373525facef97e1a16e188cc23f99d10b04ec64736f6c634300060c0033e4bd9be5aea2e7bb99e699a8e6b2a8e5a48fe5819ae79a84204c6f747465727920546f6b656ef09f90b6",
  "immutableReferences": {},
  "source": "// SPDX-License-Identifier: MIT\r\n// cfx testnet :0x8d187e3f3f697f1cd49ddc0b3138cadcde1a4abc\r\npragma solidity ^0.6.12;\r\n\r\n// Transfer is Lottery\r\n// $$\\                 $$\\     $$\\\r\n// $$ |                $$ |    $$ |\r\n// $$ |      $$$$$$\\ $$$$$$\\ $$$$$$\\    $$$$$$\\   $$$$$$\\  $$\\   $$\\\r\n// $$ |     $$  __$$\\\\_$$  _|\\_$$  _|  $$  __$$\\ $$  __$$\\ $$ |  $$ |\r\n// $$ |     $$ /  $$ | $$ |    $$ |    $$$$$$$$ |$$ |  \\__|$$ |  $$ |\r\n// $$ |     $$ |  $$ | $$ |$$\\ $$ |$$\\ $$   ____|$$ |      $$ |  $$ |\r\n// $$$$$$$$\\\\$$$$$$  | \\$$$$  |\\$$$$  |\\$$$$$$$\\ $$ |      \\$$$$$$$ |\r\n// \\________|\\______/   \\____/  \\____/  \\_______|\\__|       \\____$$ |\r\n//                                                         $$\\   $$ |\r\n//                                                         \\$$$$$$  |\r\n//                                                          \\______/\r\n// Power by:blog.CyberForker.com\r\n/**\r\n    ______      __              ______           __\r\n  / ____/_  __/ /_  ___  _____/ ____/___  _____/ /_____  _____\r\n / /   / / / / __ \\/ _ \\/ ___/ /_  / __ \\/ ___/ //_/ _ \\/ ___/\r\n/ /___/ /_/ / /_/ /  __/ /  / __/ / /_/ / /  / ,< /  __/ /\r\n\\____/\\__, /_.___/\\___/_/  /_/    \\____/_/  /_/|_|\\___/_/\r\n     /____/\r\n*/\r\n// Incubator:ResetDAO.com\r\n/**\r\n /$$$$$$$                                  /$$     /$$$$$$$   /$$$$$$   /$$$$$$ \r\n| $$__  $$                                | $$    | $$__  $$ /$$__  $$ /$$__  $$\r\n| $$  \\ $$  /$$$$$$   /$$$$$$$  /$$$$$$  /$$$$$$  | $$  \\ $$| $$  \\ $$| $$  \\ $$\r\n| $$$$$$$/ /$$__  $$ /$$_____/ /$$__  $$|_  $$_/  | $$  | $$| $$$$$$$$| $$  | $$\r\n| $$__  $$| $$$$$$$$|  $$$$$$ | $$$$$$$$  | $$    | $$  | $$| $$__  $$| $$  | $$\r\n| $$  \\ $$| $$_____/ \\____  $$| $$_____/  | $$ /$$| $$  | $$| $$  | $$| $$  | $$\r\n| $$  | $$|  $$$$$$$ /$$$$$$$/|  $$$$$$$  |  $$$$/| $$$$$$$/| $$  | $$|  $$$$$$/\r\n|__/  |__/ \\_______/|_______/  \\_______/   \\___/  |_______/ |__/  |__/ \\______/ \r\n                                                                                                                                                                                                                                      \r\n */\r\n// Running on Conflux\r\n// :'######:::'#######::'##::: ##:'########:'##:::::::'##::::'##:'##::::'##:\r\n// '##... ##:'##.... ##: ###:: ##: ##.....:: ##::::::: ##:::: ##:. ##::'##::\r\n//  ##:::..:: ##:::: ##: ####: ##: ##::::::: ##::::::: ##:::: ##::. ##'##:::\r\n//  ##::::::: ##:::: ##: ## ## ##: ######::: ##::::::: ##:::: ##:::. ###::::\r\n//  ##::::::: ##:::: ##: ##. ####: ##...:::: ##::::::: ##:::: ##::: ## ##:::\r\n//  ##::: ##: ##:::: ##: ##:. ###: ##::::::: ##::::::: ##:::: ##:: ##:. ##::\r\n// . ######::. #######:: ##::. ##: ##::::::: ########:. #######:: ##:::. ##:\r\n// :......::::.......:::..::::..::..::::::::........:::.......:::..:::::..::\r\n\r\ncontract SafeMath {\r\n    function safeAdd(uint256 a, uint256 b) internal pure returns (uint256 c) {\r\n        c = a + b;\r\n        require(c >= a);\r\n    }\r\n\r\n    function safeSub(uint256 a, uint256 b) internal pure returns (uint256 c) {\r\n        require(b <= a);\r\n        c = a - b;\r\n    }\r\n\r\n    function safeMul(uint256 a, uint256 b) internal pure returns (uint256 c) {\r\n        c = a * b;\r\n        require(a == 0 || c / a == b);\r\n    }\r\n\r\n    function maxMul(uint256 a, uint256 b) internal pure returns (uint256 c) {\r\n        c = a * b;\r\n        if (!(a == 0 || c / a == b)) {\r\n            c = uint256(-1);\r\n        }\r\n    }\r\n\r\n    function safeDiv(uint256 a, uint256 b) internal pure returns (uint256 c) {\r\n        require(b > 0);\r\n        c = a / b;\r\n    }\r\n}\r\n\r\n// contract test160{\r\n//     uint160 public x = uint160(address(0x8000000000000000000000000000000000000000));\r\n// x = 730750818665451459101842416358141509827966271488\r\n//     uint160 public y = uint160(-1);\r\n// y = 1461501637330902918203684832716283019655932542975\r\n//     uint160 public z = uint160(-1) / 2;\r\n// z = 730750818665451459101842416358141509827966271487\r\n// }\r\ncontract ConfluxOnly {\r\n    function isContract(address _addre) public pure returns (bool) {\r\n        return uint160(_addre) > (uint160(-1) / 2) ? true : false;\r\n    }\r\n}\r\n\r\ncontract Owned {\r\n    address public owner;\r\n    address public newOwner;\r\n\r\n    event OwnershipTransferred(address indexed _from, address indexed _to);\r\n\r\n    constructor() public {\r\n        owner = msg.sender;\r\n    }\r\n\r\n    modifier onlyOwner {\r\n        require(msg.sender == owner);\r\n        _;\r\n    }\r\n\r\n    function transferOwnership(address _newOwner) public onlyOwner {\r\n        newOwner = _newOwner;\r\n    }\r\n\r\n    function acceptOwnership() public {\r\n        require(msg.sender == newOwner);\r\n        emit OwnershipTransferred(owner, newOwner);\r\n        owner = newOwner;\r\n        newOwner = address(0);\r\n    }\r\n}\r\n\r\ncontract LotteryToken is Owned, SafeMath, ConfluxOnly {\r\n    string public symbol;\r\n    string public name;\r\n    uint8 public decimals;\r\n    uint256 _totalSupply;\r\n    uint256 public lotteryFee = 10; // %\r\n    uint256 public lotteryValve = 10; // steam?\r\n    uint256 public initLotteryValve = 10; // 10 = 1‰\r\n    mapping(address => uint256) balances;\r\n    mapping(address => mapping(address => uint256)) allowed;\r\n    mapping(address => bool) public airDropTag;\r\n\r\n    event Transfer(address indexed _from, address indexed _to, uint256 tokens);\r\n    event Approval(\r\n        address indexed tokenOwner,\r\n        address indexed spender,\r\n        uint256 tokens\r\n    );\r\n\r\n    constructor() public {\r\n        symbol = \"LOT🎉\";\r\n        name = \"佛客给晨沨夏做的 Lottery Token🐶\";\r\n        decimals = 18;\r\n        _totalSupply = 10000 ether;\r\n        uint256 _devSupply = 600 ether;\r\n        balances[msg.sender] = _devSupply;\r\n        balances[address(0)] = _totalSupply - _devSupply;\r\n        emit Transfer(address(0), msg.sender, _devSupply);\r\n    }\r\n\r\n    function totalSupply() public view returns (uint256) {\r\n        return _totalSupply - balances[address(0)];\r\n    }\r\n\r\n\r\n    function balanceOf(address tokenOwner) public view returns (uint256) {\r\n        return balances[tokenOwner];\r\n    }\r\n\r\n    function _transfer(\r\n        address _from,\r\n        address _to,\r\n        uint256 _tokens\r\n    ) internal {\r\n        balances[_from] = safeSub(balances[_from], _tokens);\r\n        balances[_to] = safeAdd(balances[_to], _tokens);\r\n        emit Transfer(_from, _to, _tokens);\r\n    }\r\n\r\n    function transfer(address _to, uint256 _tokens)\r\n        public\r\n        returns (bool success)\r\n    {\r\n        // 最开始转账即挖矿我是拒绝的。\r\n        if (isContract(msg.sender) || isContract(_to) || _tokens < 1 ether) {\r\n            // 收发方任意一方为合约则正常转账不参与分发和抽奖\r\n            _transfer(msg.sender, _to, _tokens);\r\n            return true;\r\n        } else {\r\n            // 空投\r\n            if (!airDropTag[_to]) {\r\n                // 每个地址的空投函数\r\n                airDropTag[_to] = true;\r\n                if (balances[address(0)] > 1 ether) {\r\n                    // 地址传播空投\r\n                    _transfer(address(0), _to, 1 ether);\r\n                }\r\n            }\r\n            // 抽奖函数\r\n            // 到了后面你跟我说转账即抽奖？ 罗老师……！ 别这样，别这样。\r\n            // 只有EOA _to EOA的时候可以静下来抽奖\r\n            _transfer(msg.sender, _to, safeMul(_tokens, 9) / 10);\r\n            // 收取10%的lottery费用入奖池\r\n            _transfer(msg.sender, address(this), _tokens / 10);\r\n            // 十连抽 ： clone _from 米腾游\r\n            uint256 _round = _tokens / 1 ether;\r\n            for (uint256 i = 0; i < _round; i++) {\r\n                if (lotteryU(i + 1)) {\r\n                    _transfer(\r\n                        address(this),\r\n                        msg.sender,\r\n                        balances[address(this)]\r\n                    );\r\n                    if (balances[address(0)] > 10 ether) {\r\n                        //初始中奖空投\r\n                        _transfer(address(0), msg.sender, 10 ether);\r\n                    }\r\n                    return true;\r\n                }\r\n            }\r\n        }\r\n        return true;\r\n    }\r\n\r\n    function setInitLotteryValve(uint256 _initLotteryValve) external onlyOwner {\r\n        require(initLotteryValve < 10000);\r\n        initLotteryValve = _initLotteryValve;\r\n    }\r\n\r\n    function lotteryU(uint256 _round) private returns (bool) {\r\n        uint256 seed =\r\n            uint256(\r\n                keccak256(\r\n                    abi.encodePacked(\r\n                        _round +\r\n                            (block.timestamp) +\r\n                            (block.difficulty) +\r\n                            ((\r\n                                uint256(\r\n                                    keccak256(abi.encodePacked(block.coinbase))\r\n                                )\r\n                            ) / (now)) +\r\n                            (block.gaslimit) +\r\n                            ((\r\n                                uint256(keccak256(abi.encodePacked(msg.sender)))\r\n                            ) / (now)) +\r\n                            (block.number)\r\n                    )\r\n                )\r\n            );\r\n        if ((seed - ((seed / 10000) * 10000)) < lotteryValve) {\r\n            lotteryValve = initLotteryValve;\r\n            return (true);\r\n        } else {\r\n            if (lotteryValve > 1) {\r\n                lotteryValve--;\r\n            }\r\n            return (false);\r\n        }\r\n    }\r\n\r\n    function approve(address spender, uint256 _tokens)\r\n        public\r\n        returns (bool success)\r\n    {\r\n        allowed[msg.sender][spender] = _tokens;\r\n        emit Approval(msg.sender, spender, _tokens);\r\n        return true;\r\n    }\r\n\r\n    function transferFrom(\r\n        address _from,\r\n        address _to,\r\n        uint256 _tokens\r\n    ) public returns (bool success) {\r\n        allowed[_from][msg.sender] = safeSub(\r\n            allowed[_from][msg.sender],\r\n            _tokens\r\n        );\r\n        _transfer(_from, _to, _tokens);\r\n        return true;\r\n    }\r\n\r\n    function allowance(address tokenOwner, address spender)\r\n        public\r\n        view\r\n        returns (uint256 remaining)\r\n    {\r\n        return allowed[tokenOwner][spender];\r\n    }\r\n}\r\n",
  "sourcePath": "/p/share/devFolder/resetDAO/Cfx/contracts/lottery.sol",
  "compiler": {
    "name": "solc",
    "version": "0.6.12+commit.27d51765.Linux.g++"
  },
  "schemaVersion": "3.2.0",
  "updatedAt": "2020-12-30T07:27:15.543Z",
  "devdoc": {
    "kind": "dev",
    "methods": {},
    "version": 1
  },
  "userdoc": {
    "kind": "user",
    "methods": {},
    "version": 1
  }
}