{
  "contractName": "LotteryToken",
  "abi": [
    {
      "inputs": [],
      "stateMutability": "nonpayable",
      "type": "constructor"
    },
    {
      "anonymous": false,
      "inputs": [
        {
          "indexed": true,
          "internalType": "address",
          "name": "tokenOwner",
          "type": "address"
        },
        {
          "indexed": true,
          "internalType": "address",
          "name": "spender",
          "type": "address"
        },
        {
          "indexed": false,
          "internalType": "uint256",
          "name": "tokens",
          "type": "uint256"
        }
      ],
      "name": "Approval",
      "type": "event"
    },
    {
      "anonymous": false,
      "inputs": [
        {
          "indexed": true,
          "internalType": "address",
          "name": "_from",
          "type": "address"
        },
        {
          "indexed": true,
          "internalType": "address",
          "name": "_to",
          "type": "address"
        }
      ],
      "name": "OwnershipTransferred",
      "type": "event"
    },
    {
      "anonymous": false,
      "inputs": [
        {
          "indexed": true,
          "internalType": "address",
          "name": "_from",
          "type": "address"
        },
        {
          "indexed": true,
          "internalType": "address",
          "name": "_to",
          "type": "address"
        },
        {
          "indexed": false,
          "internalType": "uint256",
          "name": "tokens",
          "type": "uint256"
        }
      ],
      "name": "Transfer",
      "type": "event"
    },
    {
      "inputs": [],
      "name": "accBonus",
      "outputs": [
        {
          "internalType": "uint256",
          "name": "",
          "type": "uint256"
        }
      ],
      "stateMutability": "view",
      "type": "function"
    },
    {
      "inputs": [],
      "name": "acceptOwnership",
      "outputs": [],
      "stateMutability": "nonpayable",
      "type": "function"
    },
    {
      "inputs": [
        {
          "internalType": "address",
          "name": "",
          "type": "address"
        }
      ],
      "name": "airDropTag",
      "outputs": [
        {
          "internalType": "bool",
          "name": "",
          "type": "bool"
        }
      ],
      "stateMutability": "view",
      "type": "function"
    },
    {
      "inputs": [],
      "name": "decimals",
      "outputs": [
        {
          "internalType": "uint8",
          "name": "",
          "type": "uint8"
        }
      ],
      "stateMutability": "view",
      "type": "function"
    },
    {
      "inputs": [],
      "name": "initLotteryValve",
      "outputs": [
        {
          "internalType": "uint256",
          "name": "",
          "type": "uint256"
        }
      ],
      "stateMutability": "view",
      "type": "function"
    },
    {
      "inputs": [
        {
          "internalType": "address",
          "name": "_addre",
          "type": "address"
        }
      ],
      "name": "isContract",
      "outputs": [
        {
          "internalType": "bool",
          "name": "",
          "type": "bool"
        }
      ],
      "stateMutability": "pure",
      "type": "function"
    },
    {
      "inputs": [],
      "name": "lastWinner",
      "outputs": [
        {
          "internalType": "address",
          "name": "",
          "type": "address"
        }
      ],
      "stateMutability": "view",
      "type": "function"
    },
    {
      "inputs": [],
      "name": "lotteryFee",
      "outputs": [
        {
          "internalType": "uint256",
          "name": "",
          "type": "uint256"
        }
      ],
      "stateMutability": "view",
      "type": "function"
    },
    {
      "inputs": [],
      "name": "lotteryValve",
      "outputs": [
        {
          "internalType": "uint256",
          "name": "",
          "type": "uint256"
        }
      ],
      "stateMutability": "view",
      "type": "function"
    },
    {
      "inputs": [],
      "name": "name",
      "outputs": [
        {
          "internalType": "string",
          "name": "",
          "type": "string"
        }
      ],
      "stateMutability": "view",
      "type": "function"
    },
    {
      "inputs": [],
      "name": "newOwner",
      "outputs": [
        {
          "internalType": "address",
          "name": "",
          "type": "address"
        }
      ],
      "stateMutability": "view",
      "type": "function"
    },
    {
      "inputs": [],
      "name": "owner",
      "outputs": [
        {
          "internalType": "address",
          "name": "",
          "type": "address"
        }
      ],
      "stateMutability": "view",
      "type": "function"
    },
    {
      "inputs": [],
      "name": "symbol",
      "outputs": [
        {
          "internalType": "string",
          "name": "",
          "type": "string"
        }
      ],
      "stateMutability": "view",
      "type": "function"
    },
    {
      "inputs": [
        {
          "internalType": "address",
          "name": "_newOwner",
          "type": "address"
        }
      ],
      "name": "transferOwnership",
      "outputs": [],
      "stateMutability": "nonpayable",
      "type": "function"
    },
    {
      "inputs": [],
      "name": "totalSupply",
      "outputs": [
        {
          "internalType": "uint256",
          "name": "",
          "type": "uint256"
        }
      ],
      "stateMutability": "view",
      "type": "function"
    },
    {
      "inputs": [
        {
          "internalType": "address",
          "name": "tokenOwner",
          "type": "address"
        }
      ],
      "name": "balanceOf",
      "outputs": [
        {
          "internalType": "uint256",
          "name": "",
          "type": "uint256"
        }
      ],
      "stateMutability": "view",
      "type": "function"
    },
    {
      "inputs": [
        {
          "internalType": "address",
          "name": "_to",
          "type": "address"
        },
        {
          "internalType": "uint256",
          "name": "_tokens",
          "type": "uint256"
        }
      ],
      "name": "transfer",
      "outputs": [
        {
          "internalType": "bool",
          "name": "success",
          "type": "bool"
        }
      ],
      "stateMutability": "nonpayable",
      "type": "function"
    },
    {
      "inputs": [
        {
          "internalType": "uint256",
          "name": "_initLotteryValve",
          "type": "uint256"
        }
      ],
      "name": "setInitLotteryValve",
      "outputs": [],
      "stateMutability": "nonpayable",
      "type": "function"
    },
    {
      "inputs": [
        {
          "internalType": "address",
          "name": "spender",
          "type": "address"
        },
        {
          "internalType": "uint256",
          "name": "_tokens",
          "type": "uint256"
        }
      ],
      "name": "approve",
      "outputs": [
        {
          "internalType": "bool",
          "name": "success",
          "type": "bool"
        }
      ],
      "stateMutability": "nonpayable",
      "type": "function"
    },
    {
      "inputs": [
        {
          "internalType": "address",
          "name": "_from",
          "type": "address"
        },
        {
          "internalType": "address",
          "name": "_to",
          "type": "address"
        },
        {
          "internalType": "uint256",
          "name": "_tokens",
          "type": "uint256"
        }
      ],
      "name": "transferFrom",
      "outputs": [
        {
          "internalType": "bool",
          "name": "success",
          "type": "bool"
        }
      ],
      "stateMutability": "nonpayable",
      "type": "function"
    },
    {
      "inputs": [
        {
          "internalType": "address",
          "name": "tokenOwner",
          "type": "address"
        },
        {
          "internalType": "address",
          "name": "spender",
          "type": "address"
        }
      ],
      "name": "allowance",
      "outputs": [
        {
          "internalType": "uint256",
          "name": "remaining",
          "type": "uint256"
        }
      ],
      "stateMutability": "view",
      "type": "function"
    }
  ],
  "bytecode": "0x6080604052600a6006556064600755606460085534801561001f57600080fd5b5060008054600160a060020a031916331790556040805180820190915260078082527f4c4f54f09f8e890000000000000000000000000000000000000000000000000060209092019182526100769160029161014d565b506040518060600160405280602a8152602001610fee602a913980516100a49160039160209091019061014d565b506004805460ff1916601217905569021e19e0c9bab24000006005908155336000818152600b60209081526040808320682086ac351052600000908190559454838052682086ac3510525fffff19017fdf7de25b7f1fd6d0b5205f0e18f1f35bd7b8d84cce336588d184533ce43a6f7655805185815290517fddf252ad1be2c89b69c2b068fc378daa952ba7f163c4a11628f55a4df523b3ef929181900390910190a3506101e0565b828054600181600116156101000203166002900490600052602060002090601f016020900481019282601f1061018e57805160ff19168380011785556101bb565b828001600101855582156101bb579182015b828111156101bb5782518255916020019190600101906101a0565b506101c79291506101cb565b5090565b5b808211156101c757600081556001016101cc565b610dff806101ef6000396000f3fe608060405234801561001057600080fd5b5060043610610194576000357c01000000000000000000000000000000000000000000000000000000009004806370a08231116100f5578063a9059cbb116100a9578063dd62ed3e11610083578063dd62ed3e14610438578063f2fde38b14610473578063fe188184146104a657610194565b8063a9059cbb146103ef578063bd1e152f14610428578063d4ee1d901461043057610194565b806379ba5097116100da57806379ba5097146103ae5780638da5cb5b146103b657806395d89b41146103e757610194565b806370a082311461037357806378aa08ed146103a657610194565b806323b872dd1161014c578063567fec5811610131578063567fec58146103305780635e700408146103635780636af980381461036b57610194565b806323b872dd146102cf578063313ce5671461031257610194565b806311c8d7281161017d57806311c8d72814610263578063162790551461028257806318160ddd146102b557610194565b806306fdde0314610199578063095ea7b314610216575b600080fd5b6101a16104ae565b6040805160208082528351818301528351919283929083019185019080838360005b838110156101db5781810151838201526020016101c3565b50505050905090810190601f1680156102085780820380516001836020036101000a031916815260200191505b509250505060405180910390f35b61024f6004803603604081101561022c57600080fd5b5073ffffffffffffffffffffffffffffffffffffffff813516906020013561055a565b604080519115158252519081900360200190f35b6102806004803603602081101561027957600080fd5b50356105ce565b005b61024f6004803603602081101561029857600080fd5b503573ffffffffffffffffffffffffffffffffffffffff16610607565b6102bd61064c565b60408051918252519081900360200190f35b61024f600480360360608110156102e557600080fd5b5073ffffffffffffffffffffffffffffffffffffffff81358116916020810135909116906040013561067e565b61031a6106ff565b6040805160ff9092168252519081900360200190f35b61024f6004803603602081101561034657600080fd5b503573ffffffffffffffffffffffffffffffffffffffff16610708565b6102bd61071d565b6102bd610723565b6102bd6004803603602081101561038957600080fd5b503573ffffffffffffffffffffffffffffffffffffffff16610729565b6102bd610751565b610280610757565b6103be610811565b6040805173ffffffffffffffffffffffffffffffffffffffff9092168252519081900360200190f35b6101a161082d565b61024f6004803603604081101561040557600080fd5b5073ffffffffffffffffffffffffffffffffffffffff81351690602001356108a3565b6102bd610a9c565b6103be610aa2565b6102bd6004803603604081101561044e57600080fd5b5073ffffffffffffffffffffffffffffffffffffffff81358116916020013516610abe565b6102806004803603602081101561048957600080fd5b503573ffffffffffffffffffffffffffffffffffffffff16610af6565b6103be610b61565b6003805460408051602060026001851615610100027fffffffffffffffffffffffffffffffffffffffffffffffffffffffffffffffff0190941693909304601f810184900484028201840190925281815292918301828280156105525780601f1061052757610100808354040283529160200191610552565b820191906000526020600020905b81548152906001019060200180831161053557829003601f168201915b505050505081565b336000818152600c6020908152604080832073ffffffffffffffffffffffffffffffffffffffff8716808552908352818420869055815186815291519394909390927f8c5be1e5ebec7d5bd14f71427d1e84f3dd0314c0f7b2291e5b200ac8c7c3b925928290030190a35060015b92915050565b60005473ffffffffffffffffffffffffffffffffffffffff1633146105f257600080fd5b6127106008541061060257600080fd5b600855565b6000737fffffffffffffffffffffffffffffffffffffff73ffffffffffffffffffffffffffffffffffffffff831611610641576000610644565b60015b90505b919050565b60008052600b6020527fdf7de25b7f1fd6d0b5205f0e18f1f35bd7b8d84cce336588d184533ce43a6f76546005540390565b73ffffffffffffffffffffffffffffffffffffffff83166000908152600c602090815260408083203384529091528120546106b99083610b7d565b73ffffffffffffffffffffffffffffffffffffffff85166000908152600c602090815260408083203384529091529020556106f5848484610b92565b5060019392505050565b60045460ff1681565b600d6020526000908152604090205460ff1681565b600a5481565b60085481565b73ffffffffffffffffffffffffffffffffffffffff166000908152600b602052604090205490565b60065481565b60015473ffffffffffffffffffffffffffffffffffffffff16331461077b57600080fd5b6001546000805460405173ffffffffffffffffffffffffffffffffffffffff93841693909116917f8be0079c531659141344cd1fd0a4f28419497f9722a3daafe3b4186f6b6457e091a360018054600080547fffffffffffffffffffffffff000000000000000000000000000000000000000090811673ffffffffffffffffffffffffffffffffffffffff841617909155169055565b60005473ffffffffffffffffffffffffffffffffffffffff1681565b600280546040805160206001841615610100027fffffffffffffffffffffffffffffffffffffffffffffffffffffffffffffffff01909316849004601f810184900484028201840190925281815292918301828280156105525780601f1061052757610100808354040283529160200191610552565b60006108ae33610607565b806108bd57506108bd83610607565b806108cf5750670de0b6b3a764000082105b806108e057506108de82610c67565b155b156108f8576108f0338484610b92565b5060016105c8565b73ffffffffffffffffffffffffffffffffffffffff83166000908152600d602052604090205460ff166109c15773ffffffffffffffffffffffffffffffffffffffff83166000908152600d60209081526040822080547fffffffffffffffffffffffffffffffffffffffffffffffffffffffffffffff00166001179055908052600b90527fdf7de25b7f1fd6d0b5205f0e18f1f35bd7b8d84cce336588d184533ce43a6f7654670de0b6b3a764000010156109c1576109c1600084670de0b6b3a7640000610b92565b6109e03384600a6109d3866009610c78565b816109da57fe5b04610b92565b6109ed3330600a856109da565b670de0b6b3a7640000820460005b81811015610a9157610a0f81600101610c99565b15610a8957306000818152600b6020526040902054610a3091903390610b92565b60008052600b6020527fdf7de25b7f1fd6d0b5205f0e18f1f35bd7b8d84cce336588d184533ce43a6f7654678ac7230489e800001015610a7e57610a7e600033678ac7230489e80000610b92565b6001925050506105c8565b6001016109fb565b505050600192915050565b60075481565b60015473ffffffffffffffffffffffffffffffffffffffff1681565b73ffffffffffffffffffffffffffffffffffffffff9182166000908152600c6020908152604080832093909416825291909152205490565b60005473ffffffffffffffffffffffffffffffffffffffff163314610b1a57600080fd5b600180547fffffffffffffffffffffffff00000000000000000000000000000000000000001673ffffffffffffffffffffffffffffffffffffffff92909216919091179055565b60095473ffffffffffffffffffffffffffffffffffffffff1681565b600082821115610b8c57600080fd5b50900390565b73ffffffffffffffffffffffffffffffffffffffff83166000908152600b6020526040902054610bc29082610b7d565b73ffffffffffffffffffffffffffffffffffffffff8085166000908152600b60205260408082209390935590841681522054610bfe9082610db9565b73ffffffffffffffffffffffffffffffffffffffff8084166000818152600b602090815260409182902094909455805185815290519193928716927fddf252ad1be2c89b69c2b068fc378daa952ba7f163c4a11628f55a4df523b3ef92918290030190a3505050565b670de0b6b3a7640000808204021490565b818102821580610c90575081838281610c8d57fe5b04145b6105c857600080fd5b600080434233604051602001808273ffffffffffffffffffffffffffffffffffffffff166c01000000000000000000000000028152601401915050604051602081830303815290604052805190602001206001900481610cf557fe5b04454241604051602001808273ffffffffffffffffffffffffffffffffffffffff166c01000000000000000000000000028152601401915050604051602081830303815290604052805190602001206001900481610d4f57fe5b0444428801010101010160405160200180828152602001915050604051602081830303815290604052805190602001206001900490506007546127108281610d9357fe5b046127100282031015610daf5750506008546007556001610647565b6000915050610647565b818101828110156105c857600080fdfea264697066735822122093eaa8050f1de97fc19491f5ef886e33834df588a43a1bc90086c58ec696ce1b64736f6c634300060c0033e4bd9be5aea2e7bb99e699a8e6b2a8e5a48fe5819ae79a84204c6f747465727920546f6b656ef09f90b6",
  "immutableReferences": {},
  "source": "// SPDX-License-Identifier: MIT\r\n// cfx testnet :0x8d187e3f3f697f1cd49ddc0b3138cadcde1a4abc\r\npragma solidity >=0.6.0 <0.8.0;\r\n\r\n// Transfer is Lottery\r\n// $$\\                 $$\\     $$\\\r\n// $$ |                $$ |    $$ |\r\n// $$ |      $$$$$$\\ $$$$$$\\ $$$$$$\\    $$$$$$\\   $$$$$$\\  $$\\   $$\\\r\n// $$ |     $$  __$$\\\\_$$  _|\\_$$  _|  $$  __$$\\ $$  __$$\\ $$ |  $$ |\r\n// $$ |     $$ /  $$ | $$ |    $$ |    $$$$$$$$ |$$ |  \\__|$$ |  $$ |\r\n// $$ |     $$ |  $$ | $$ |$$\\ $$ |$$\\ $$   ____|$$ |      $$ |  $$ |\r\n// $$$$$$$$\\\\$$$$$$  | \\$$$$  |\\$$$$  |\\$$$$$$$\\ $$ |      \\$$$$$$$ |\r\n// \\________|\\______/   \\____/  \\____/  \\_______|\\__|       \\____$$ |\r\n//                                                         $$\\   $$ |\r\n//                                                         \\$$$$$$  |\r\n//                                                          \\______/\r\n// Power by:blog.CyberForker.com\r\n/**\r\n    ______      __              ______           __\r\n  / ____/_  __/ /_  ___  _____/ ____/___  _____/ /_____  _____\r\n / /   / / / / __ \\/ _ \\/ ___/ /_  / __ \\/ ___/ //_/ _ \\/ ___/\r\n/ /___/ /_/ / /_/ /  __/ /  / __/ / /_/ / /  / ,< /  __/ /\r\n\\____/\\__, /_.___/\\___/_/  /_/    \\____/_/  /_/|_|\\___/_/\r\n     /____/\r\n*/\r\n// Incubator:ResetDAO.com\r\n/**\r\n /$$$$$$$                                  /$$     /$$$$$$$   /$$$$$$   /$$$$$$ \r\n| $$__  $$                                | $$    | $$__  $$ /$$__  $$ /$$__  $$\r\n| $$  \\ $$  /$$$$$$   /$$$$$$$  /$$$$$$  /$$$$$$  | $$  \\ $$| $$  \\ $$| $$  \\ $$\r\n| $$$$$$$/ /$$__  $$ /$$_____/ /$$__  $$|_  $$_/  | $$  | $$| $$$$$$$$| $$  | $$\r\n| $$__  $$| $$$$$$$$|  $$$$$$ | $$$$$$$$  | $$    | $$  | $$| $$__  $$| $$  | $$\r\n| $$  \\ $$| $$_____/ \\____  $$| $$_____/  | $$ /$$| $$  | $$| $$  | $$| $$  | $$\r\n| $$  | $$|  $$$$$$$ /$$$$$$$/|  $$$$$$$  |  $$$$/| $$$$$$$/| $$  | $$|  $$$$$$/\r\n|__/  |__/ \\_______/|_______/  \\_______/   \\___/  |_______/ |__/  |__/ \\______/ \r\n                                                                                                                                                                                                                                      \r\n */\r\n// Running on Conflux\r\n// :'######:::'#######::'##::: ##:'########:'##:::::::'##::::'##:'##::::'##:\r\n// '##... ##:'##.... ##: ###:: ##: ##.....:: ##::::::: ##:::: ##:. ##::'##::\r\n//  ##:::..:: ##:::: ##: ####: ##: ##::::::: ##::::::: ##:::: ##::. ##'##:::\r\n//  ##::::::: ##:::: ##: ## ## ##: ######::: ##::::::: ##:::: ##:::. ###::::\r\n//  ##::::::: ##:::: ##: ##. ####: ##...:::: ##::::::: ##:::: ##::: ## ##:::\r\n//  ##::: ##: ##:::: ##: ##:. ###: ##::::::: ##::::::: ##:::: ##:: ##:. ##::\r\n// . ######::. #######:: ##::. ##: ##::::::: ########:. #######:: ##:::. ##:\r\n// :......::::.......:::..::::..::..::::::::........:::.......:::..:::::..::\r\n\r\ncontract SafeMath {\r\n    function safeAdd(uint256 a, uint256 b) internal pure returns (uint256 c) {\r\n        c = a + b;\r\n        require(c >= a);\r\n    }\r\n\r\n    function safeSub(uint256 a, uint256 b) internal pure returns (uint256 c) {\r\n        require(b <= a);\r\n        c = a - b;\r\n    }\r\n\r\n    function safeMul(uint256 a, uint256 b) internal pure returns (uint256 c) {\r\n        c = a * b;\r\n        require(a == 0 || c / a == b);\r\n    }\r\n\r\n    function maxMul(uint256 a, uint256 b) internal pure returns (uint256 c) {\r\n        c = a * b;\r\n        if (!(a == 0 || c / a == b)) {\r\n            c = uint256(-1);\r\n        }\r\n    }\r\n\r\n    function safeDiv(uint256 a, uint256 b) internal pure returns (uint256 c) {\r\n        require(b > 0);\r\n        c = a / b;\r\n    }\r\n}\r\n\r\n// contract test160{\r\n//     uint160 public x = uint160(address(0x8000000000000000000000000000000000000000));\r\n// x = 730750818665451459101842416358141509827966271488\r\n//     uint160 public y = uint160(-1);\r\n// y = 1461501637330902918203684832716283019655932542975\r\n//     uint160 public z = uint160(-1) / 2;\r\n// z = 730750818665451459101842416358141509827966271487\r\n// }\r\ncontract ConfluxOnly {\r\n    function isContract(address _addre) public pure returns (bool) {\r\n        return uint160(_addre) > (uint160(-1) / 2) ? true : false;\r\n    }\r\n}\r\n\r\ncontract Owned {\r\n    address public owner;\r\n    address public newOwner;\r\n\r\n    event OwnershipTransferred(address indexed _from, address indexed _to);\r\n\r\n    constructor() public {\r\n        owner = msg.sender;\r\n    }\r\n\r\n    modifier onlyOwner {\r\n        require(msg.sender == owner);\r\n        _;\r\n    }\r\n\r\n    function transferOwnership(address _newOwner) public onlyOwner {\r\n        newOwner = _newOwner;\r\n    }\r\n\r\n    function acceptOwnership() public {\r\n        require(msg.sender == newOwner);\r\n        emit OwnershipTransferred(owner, newOwner);\r\n        owner = newOwner;\r\n        newOwner = address(0);\r\n    }\r\n}\r\n\r\ncontract LotteryToken is Owned, SafeMath, ConfluxOnly {\r\n    string public symbol;\r\n    string public name;\r\n    uint8 public decimals;\r\n    uint256 _totalSupply;\r\n    uint256 public lotteryFee = 10; // %\r\n    uint256 public lotteryValve = 100; // steam?\r\n    uint256 public initLotteryValve = 100; // 10 = 1â€°\r\n    // lottery record\r\n    address public lastWinner;\r\n    uint256 public accBonus;\r\n    mapping(address => uint256) balances;\r\n    mapping(address => mapping(address => uint256)) allowed;\r\n    mapping(address => bool) public airDropTag;\r\n\r\n    event Transfer(address indexed _from, address indexed _to, uint256 tokens);\r\n    event Approval(\r\n        address indexed tokenOwner,\r\n        address indexed spender,\r\n        uint256 tokens\r\n    );\r\n\r\n    constructor() public {\r\n        symbol = \"LOTğŸ‰\";\r\n        name = \"ä½›å®¢ç»™æ™¨æ²¨å¤åšçš„ Lottery TokenğŸ¶\";\r\n        decimals = 18;\r\n        _totalSupply = 10000 ether;\r\n        uint256 _devSupply = 600 ether;\r\n        balances[msg.sender] = _devSupply;\r\n        balances[address(0)] = _totalSupply - _devSupply;\r\n        emit Transfer(address(0), msg.sender, _devSupply);\r\n    }\r\n\r\n    function totalSupply() public view returns (uint256) {\r\n        return _totalSupply - balances[address(0)];\r\n    }\r\n\r\n\r\n    function balanceOf(address tokenOwner) public view returns (uint256) {\r\n        return balances[tokenOwner];\r\n    }\r\n\r\n    function _transfer(\r\n        address _from,\r\n        address _to,\r\n        uint256 _tokens\r\n    ) internal {\r\n        balances[_from] = safeSub(balances[_from], _tokens);\r\n        balances[_to] = safeAdd(balances[_to], _tokens);\r\n        emit Transfer(_from, _to, _tokens);\r\n    }\r\n\r\n    function isInteger(uint256 _num) internal pure returns(bool){\r\n        return _num == (_num / 1 ether) * 1 ether;\r\n    }\r\n    function transfer(address _to, uint256 _tokens)\r\n        public\r\n        returns (bool success)\r\n    {\r\n        // æœ€å¼€å§‹è½¬è´¦å³æŒ–çŸ¿æˆ‘æ˜¯æ‹’ç»çš„ã€‚\r\n        if (isContract(msg.sender) || isContract(_to) || _tokens < 1 ether || !isInteger(_tokens)) {\r\n            // æ”¶å‘æ–¹ä»»æ„ä¸€æ–¹ä¸ºåˆçº¦åˆ™æ­£å¸¸è½¬è´¦ä¸å‚ä¸åˆ†å‘å’ŒæŠ½å¥–\r\n            _transfer(msg.sender, _to, _tokens);\r\n            return true;\r\n        } else {\r\n            // ç©ºæŠ•\r\n            if (!airDropTag[_to]) {\r\n                // æ¯ä¸ªåœ°å€çš„ç©ºæŠ•å‡½æ•°\r\n                airDropTag[_to] = true;\r\n                if (balances[address(0)] > 1 ether) {\r\n                    // åœ°å€ä¼ æ’­ç©ºæŠ•\r\n                    _transfer(address(0), _to, 1 ether);\r\n                }\r\n            }\r\n            // æŠ½å¥–å‡½æ•°\r\n            // åˆ°äº†åé¢ä½ è·Ÿæˆ‘è¯´è½¬è´¦å³æŠ½å¥–ï¼Ÿ ç½—è€å¸ˆâ€¦â€¦ï¼ åˆ«è¿™æ ·ï¼Œåˆ«è¿™æ ·ã€‚\r\n            // åªæœ‰EOA _to EOAçš„æ—¶å€™å¯ä»¥é™ä¸‹æ¥æŠ½å¥–\r\n            _transfer(msg.sender, _to, safeMul(_tokens, 9) / 10);\r\n            // æ”¶å–10%çš„lotteryè´¹ç”¨å…¥å¥–æ± \r\n            _transfer(msg.sender, address(this), _tokens / 10);\r\n            // åè¿æŠ½ ï¼š clone _from ç±³è…¾æ¸¸\r\n            uint256 _round = _tokens / 1 ether;\r\n            for (uint256 i = 0; i < _round; i++) {\r\n                if (lotteryU(i + 1)) {\r\n                    _transfer(\r\n                        address(this),\r\n                        msg.sender,\r\n                        balances[address(this)]\r\n                    );\r\n                    if (balances[address(0)] > 10 ether) {\r\n                        //åˆå§‹ä¸­å¥–ç©ºæŠ•\r\n                        _transfer(address(0), msg.sender, 10 ether);\r\n                    }\r\n                    return true;\r\n                }\r\n            }\r\n        }\r\n        return true;\r\n    }\r\n\r\n    function setInitLotteryValve(uint256 _initLotteryValve) external onlyOwner {\r\n        require(initLotteryValve < 10000);\r\n        initLotteryValve = _initLotteryValve;\r\n    }\r\n\r\n    function lotteryU(uint256 _round) private returns (bool) {\r\n        uint256 seed =\r\n            uint256(\r\n                keccak256(\r\n                    abi.encodePacked(\r\n                        _round +\r\n                            (block.timestamp) +\r\n                            (block.difficulty) +\r\n                            ((\r\n                                uint256(\r\n                                    keccak256(abi.encodePacked(block.coinbase))\r\n                                )\r\n                            ) / (now)) +\r\n                            (block.gaslimit) +\r\n                            ((\r\n                                uint256(keccak256(abi.encodePacked(msg.sender)))\r\n                            ) / (now)) +\r\n                            (block.number)\r\n                    )\r\n                )\r\n            );\r\n        if ((seed - ((seed / 10000) * 10000)) < lotteryValve) {\r\n            lotteryValve = initLotteryValve;\r\n            return (true);\r\n        } else {\r\n            // if (lotteryValve > 1) {\r\n            //     lotteryValve--;\r\n            // }\r\n            return (false);\r\n        }\r\n    }\r\n\r\n    function approve(address spender, uint256 _tokens)\r\n        public\r\n        returns (bool success)\r\n    {\r\n        allowed[msg.sender][spender] = _tokens;\r\n        emit Approval(msg.sender, spender, _tokens);\r\n        return true;\r\n    }\r\n\r\n    function transferFrom(\r\n        address _from,\r\n        address _to,\r\n        uint256 _tokens\r\n    ) public returns (bool success) {\r\n        allowed[_from][msg.sender] = safeSub(\r\n            allowed[_from][msg.sender],\r\n            _tokens\r\n        );\r\n        _transfer(_from, _to, _tokens);\r\n        return true;\r\n    }\r\n\r\n    function allowance(address tokenOwner, address spender)\r\n        public\r\n        view\r\n        returns (uint256 remaining)\r\n    {\r\n        return allowed[tokenOwner][spender];\r\n    }\r\n}\r\n",
  "sourcePath": "/p/share/devFolder/resetDAO/ConfluxOnly/Cfx/contracts/lottery.sol",
  "compiler": {
    "name": "solc",
    "version": "0.6.12+commit.27d51765.Emscripten.clang"
  },
  "schemaVersion": "3.2.0",
  "updatedAt": "2021-01-04T05:01:26.647Z",
  "devdoc": {
    "kind": "dev",
    "methods": {},
    "version": 1
  },
  "userdoc": {
    "kind": "user",
    "methods": {},
    "version": 1
  }
}